{
  "contractName": "TrustDaoAvatar",
  "abi": [
    {
      "inputs": [
        {
          "internalType": "address",
          "name": "_recipient",
          "type": "address"
        }
      ],
      "stateMutability": "nonpayable",
      "type": "constructor"
    },
    {
      "anonymous": false,
      "inputs": [
        {
          "indexed": true,
          "internalType": "address",
          "name": "owner",
          "type": "address"
        },
        {
          "indexed": true,
          "internalType": "address",
          "name": "approved",
          "type": "address"
        },
        {
          "indexed": true,
          "internalType": "uint256",
          "name": "tokenId",
          "type": "uint256"
        }
      ],
      "name": "Approval",
      "type": "event"
    },
    {
      "anonymous": false,
      "inputs": [
        {
          "indexed": true,
          "internalType": "address",
          "name": "owner",
          "type": "address"
        },
        {
          "indexed": true,
          "internalType": "address",
          "name": "operator",
          "type": "address"
        },
        {
          "indexed": false,
          "internalType": "bool",
          "name": "approved",
          "type": "bool"
        }
      ],
      "name": "ApprovalForAll",
      "type": "event"
    },
    {
      "anonymous": false,
      "inputs": [
        {
          "indexed": true,
          "internalType": "address",
          "name": "owner",
          "type": "address"
        },
        {
          "indexed": true,
          "internalType": "uint256",
          "name": "tokenId",
          "type": "uint256"
        }
      ],
      "name": "Mint",
      "type": "event"
    },
    {
      "anonymous": false,
      "inputs": [
        {
          "indexed": true,
          "internalType": "address",
          "name": "previousOwner",
          "type": "address"
        },
        {
          "indexed": true,
          "internalType": "address",
          "name": "newOwner",
          "type": "address"
        }
      ],
      "name": "OwnershipTransferred",
      "type": "event"
    },
    {
      "anonymous": false,
      "inputs": [
        {
          "indexed": true,
          "internalType": "address",
          "name": "from",
          "type": "address"
        },
        {
          "indexed": true,
          "internalType": "address",
          "name": "to",
          "type": "address"
        },
        {
          "indexed": true,
          "internalType": "uint256",
          "name": "tokenId",
          "type": "uint256"
        }
      ],
      "name": "Transfer",
      "type": "event"
    },
    {
      "inputs": [],
      "name": "_baseTokenURI",
      "outputs": [
        {
          "internalType": "string",
          "name": "",
          "type": "string"
        }
      ],
      "stateMutability": "view",
      "type": "function"
    },
    {
      "inputs": [
        {
          "internalType": "address",
          "name": "to",
          "type": "address"
        },
        {
          "internalType": "uint256",
          "name": "tokenId",
          "type": "uint256"
        }
      ],
      "name": "approve",
      "outputs": [],
      "stateMutability": "nonpayable",
      "type": "function"
    },
    {
      "inputs": [
        {
          "internalType": "address",
          "name": "owner",
          "type": "address"
        }
      ],
      "name": "balanceOf",
      "outputs": [
        {
          "internalType": "uint256",
          "name": "",
          "type": "uint256"
        }
      ],
      "stateMutability": "view",
      "type": "function"
    },
    {
      "inputs": [
        {
          "internalType": "uint256",
          "name": "tokenId",
          "type": "uint256"
        }
      ],
      "name": "getApproved",
      "outputs": [
        {
          "internalType": "address",
          "name": "",
          "type": "address"
        }
      ],
      "stateMutability": "view",
      "type": "function"
    },
    {
      "inputs": [
        {
          "internalType": "address",
          "name": "owner",
          "type": "address"
        },
        {
          "internalType": "address",
          "name": "operator",
          "type": "address"
        }
      ],
      "name": "isApprovedForAll",
      "outputs": [
        {
          "internalType": "bool",
          "name": "",
          "type": "bool"
        }
      ],
      "stateMutability": "view",
      "type": "function"
    },
    {
      "inputs": [],
      "name": "maxItems",
      "outputs": [
        {
          "internalType": "uint256",
          "name": "",
          "type": "uint256"
        }
      ],
      "stateMutability": "view",
      "type": "function"
    },
    {
      "inputs": [],
      "name": "maxItemsPerTx",
      "outputs": [
        {
          "internalType": "uint256",
          "name": "",
          "type": "uint256"
        }
      ],
      "stateMutability": "view",
      "type": "function"
    },
    {
      "inputs": [],
      "name": "merkleRoot",
      "outputs": [
        {
          "internalType": "bytes32",
          "name": "",
          "type": "bytes32"
        }
      ],
      "stateMutability": "view",
      "type": "function"
    },
    {
      "inputs": [],
      "name": "mintPrice",
      "outputs": [
        {
          "internalType": "uint256",
          "name": "",
          "type": "uint256"
        }
      ],
      "stateMutability": "view",
      "type": "function"
    },
    {
      "inputs": [],
      "name": "name",
      "outputs": [
        {
          "internalType": "string",
          "name": "",
          "type": "string"
        }
      ],
      "stateMutability": "view",
      "type": "function"
    },
    {
      "inputs": [],
      "name": "owner",
      "outputs": [
        {
          "internalType": "address",
          "name": "",
          "type": "address"
        }
      ],
      "stateMutability": "view",
      "type": "function"
    },
    {
      "inputs": [
        {
          "internalType": "uint256",
          "name": "tokenId",
          "type": "uint256"
        }
      ],
      "name": "ownerOf",
      "outputs": [
        {
          "internalType": "address",
          "name": "",
          "type": "address"
        }
      ],
      "stateMutability": "view",
      "type": "function"
    },
    {
      "inputs": [],
      "name": "recipient",
      "outputs": [
        {
          "internalType": "address",
          "name": "",
          "type": "address"
        }
      ],
      "stateMutability": "view",
      "type": "function"
    },
    {
      "inputs": [],
      "name": "renounceOwnership",
      "outputs": [],
      "stateMutability": "nonpayable",
      "type": "function"
    },
    {
      "inputs": [
        {
          "internalType": "address",
          "name": "from",
          "type": "address"
        },
        {
          "internalType": "address",
          "name": "to",
          "type": "address"
        },
        {
          "internalType": "uint256",
          "name": "tokenId",
          "type": "uint256"
        }
      ],
      "name": "safeTransferFrom",
      "outputs": [],
      "stateMutability": "nonpayable",
      "type": "function"
    },
    {
      "inputs": [
        {
          "internalType": "address",
          "name": "from",
          "type": "address"
        },
        {
          "internalType": "address",
          "name": "to",
          "type": "address"
        },
        {
          "internalType": "uint256",
          "name": "tokenId",
          "type": "uint256"
        },
        {
          "internalType": "bytes",
          "name": "_data",
          "type": "bytes"
        }
      ],
      "name": "safeTransferFrom",
      "outputs": [],
      "stateMutability": "nonpayable",
      "type": "function"
    },
    {
      "inputs": [
        {
          "internalType": "address",
          "name": "operator",
          "type": "address"
        },
        {
          "internalType": "bool",
          "name": "approved",
          "type": "bool"
        }
      ],
      "name": "setApprovalForAll",
      "outputs": [],
      "stateMutability": "nonpayable",
      "type": "function"
    },
    {
      "inputs": [],
      "name": "startTimestamp",
      "outputs": [
        {
          "internalType": "uint256",
          "name": "",
          "type": "uint256"
        }
      ],
      "stateMutability": "view",
      "type": "function"
    },
    {
      "inputs": [
        {
          "internalType": "bytes4",
          "name": "interfaceId",
          "type": "bytes4"
        }
      ],
      "name": "supportsInterface",
      "outputs": [
        {
          "internalType": "bool",
          "name": "",
          "type": "bool"
        }
      ],
      "stateMutability": "view",
      "type": "function"
    },
    {
      "inputs": [],
      "name": "symbol",
      "outputs": [
        {
          "internalType": "string",
          "name": "",
          "type": "string"
        }
      ],
      "stateMutability": "view",
      "type": "function"
    },
    {
      "inputs": [],
      "name": "totalSupply",
      "outputs": [
        {
          "internalType": "uint256",
          "name": "",
          "type": "uint256"
        }
      ],
      "stateMutability": "view",
      "type": "function"
    },
    {
      "inputs": [
        {
          "internalType": "address",
          "name": "from",
          "type": "address"
        },
        {
          "internalType": "address",
          "name": "to",
          "type": "address"
        },
        {
          "internalType": "uint256",
          "name": "tokenId",
          "type": "uint256"
        }
      ],
      "name": "transferFrom",
      "outputs": [],
      "stateMutability": "nonpayable",
      "type": "function"
    },
    {
      "inputs": [
        {
          "internalType": "address",
          "name": "newOwner",
          "type": "address"
        }
      ],
      "name": "transferOwnership",
      "outputs": [],
      "stateMutability": "nonpayable",
      "type": "function"
    },
    {
      "inputs": [
        {
          "internalType": "address",
          "name": "",
          "type": "address"
        }
      ],
      "name": "whitelistRemaining",
      "outputs": [
        {
          "internalType": "uint256",
          "name": "",
          "type": "uint256"
        }
      ],
      "stateMutability": "view",
      "type": "function"
    },
    {
      "inputs": [
        {
          "internalType": "address",
          "name": "",
          "type": "address"
        }
      ],
      "name": "whitelistUsed",
      "outputs": [
        {
          "internalType": "bool",
          "name": "",
          "type": "bool"
        }
      ],
      "stateMutability": "view",
      "type": "function"
    },
    {
      "inputs": [
        {
          "internalType": "uint256",
          "name": "amount",
          "type": "uint256"
        }
      ],
      "name": "ownerMint",
      "outputs": [],
      "stateMutability": "nonpayable",
      "type": "function"
    },
    {
      "inputs": [
        {
          "internalType": "uint256",
          "name": "amount",
          "type": "uint256"
        }
      ],
      "name": "publicMint",
      "outputs": [],
      "stateMutability": "payable",
      "type": "function"
    },
    {
      "inputs": [
        {
          "internalType": "uint256",
          "name": "amount",
          "type": "uint256"
        },
        {
          "internalType": "uint256",
          "name": "totalAllocation",
          "type": "uint256"
        },
        {
          "internalType": "bytes32",
          "name": "leaf",
          "type": "bytes32"
        },
        {
          "internalType": "bytes32[]",
          "name": "proof",
          "type": "bytes32[]"
        }
      ],
      "name": "whitelistMint",
      "outputs": [],
      "stateMutability": "payable",
      "type": "function"
    },
    {
      "inputs": [
        {
          "internalType": "bytes32",
          "name": "root",
          "type": "bytes32"
        },
        {
          "internalType": "bytes32",
          "name": "leaf",
          "type": "bytes32"
        },
        {
          "internalType": "bytes32[]",
          "name": "proof",
          "type": "bytes32[]"
        }
      ],
      "name": "verify",
      "outputs": [
        {
          "internalType": "bool",
          "name": "",
          "type": "bool"
        }
      ],
      "stateMutability": "pure",
      "type": "function"
    },
    {
      "inputs": [
        {
          "internalType": "uint256",
          "name": "_mintPrice",
          "type": "uint256"
        }
      ],
      "name": "setMintPrice",
      "outputs": [],
      "stateMutability": "nonpayable",
      "type": "function"
    },
    {
      "inputs": [
        {
          "internalType": "uint256",
          "name": "_maxItems",
          "type": "uint256"
        }
      ],
      "name": "setMaxItems",
      "outputs": [],
      "stateMutability": "nonpayable",
      "type": "function"
    },
    {
      "inputs": [
        {
          "internalType": "address",
          "name": "_recipient",
          "type": "address"
        }
      ],
      "name": "setRecipient",
      "outputs": [],
      "stateMutability": "nonpayable",
      "type": "function"
    },
    {
      "inputs": [
        {
          "internalType": "uint256",
          "name": "_startTimestamp",
          "type": "uint256"
        }
      ],
      "name": "setStartTimestamp",
      "outputs": [],
      "stateMutability": "nonpayable",
      "type": "function"
    },
    {
      "inputs": [
        {
          "internalType": "string",
          "name": "__baseTokenURI",
          "type": "string"
        }
      ],
      "name": "setBaseTokenURI",
      "outputs": [],
      "stateMutability": "nonpayable",
      "type": "function"
    },
    {
      "inputs": [
        {
          "internalType": "bytes32",
          "name": "_merkleRoot",
          "type": "bytes32"
        }
      ],
      "name": "setMerkleRoot",
      "outputs": [],
      "stateMutability": "nonpayable",
      "type": "function"
    },
    {
      "inputs": [],
      "name": "withdraw",
      "outputs": [],
      "stateMutability": "nonpayable",
      "type": "function"
    },
    {
      "inputs": [
        {
          "internalType": "uint256",
          "name": "_tokenId",
          "type": "uint256"
        }
      ],
      "name": "tokenURI",
      "outputs": [
        {
          "internalType": "string",
          "name": "",
          "type": "string"
        }
      ],
      "stateMutability": "view",
      "type": "function"
    }
  ],
  "bytecode": "0x60806040526000600755668e1bc9bf040000600a55611388600b556000600c556032600d553480156200003157600080fd5b5060405162004be738038062004be78339818101604052810190620000579190620004ac565b6040518060400160405280600e81526020017f545255535444414f4156415441520000000000000000000000000000000000008152506040518060400160405280600581526020017f54444156540000000000000000000000000000000000000000000000000000008152508160009080519060200190620000db92919062000392565b508060019080519060200190620000f492919062000392565b505050620001176200010b6200018460201b60201c565b6200018c60201b60201c565b6200013c73ffffffffffffffffffffffffffffffffffffffff6200025260201b60201c565b80600e60006101000a81548173ffffffffffffffffffffffffffffffffffffffff021916908373ffffffffffffffffffffffffffffffffffffffff160217905550506200065e565b600033905090565b6000600660009054906101000a900473ffffffffffffffffffffffffffffffffffffffff16905081600660006101000a81548173ffffffffffffffffffffffffffffffffffffffff021916908373ffffffffffffffffffffffffffffffffffffffff1602179055508173ffffffffffffffffffffffffffffffffffffffff168173ffffffffffffffffffffffffffffffffffffffff167f8be0079c531659141344cd1fd0a4f28419497f9722a3daafe3b4186f6b6457e060405160405180910390a35050565b620002626200018460201b60201c565b73ffffffffffffffffffffffffffffffffffffffff16620002886200036860201b60201c565b73ffffffffffffffffffffffffffffffffffffffff1614620002e1576040517f08c379a0000000000000000000000000000000000000000000000000000000008152600401620002d8906200053f565b60405180910390fd5b600073ffffffffffffffffffffffffffffffffffffffff168173ffffffffffffffffffffffffffffffffffffffff16141562000354576040517f08c379a00000000000000000000000000000000000000000000000000000000081526004016200034b90620005d7565b60405180910390fd5b62000365816200018c60201b60201c565b50565b6000600660009054906101000a900473ffffffffffffffffffffffffffffffffffffffff16905090565b828054620003a09062000628565b90600052602060002090601f016020900481019282620003c4576000855562000410565b82601f10620003df57805160ff191683800117855562000410565b8280016001018555821562000410579182015b828111156200040f578251825591602001919060010190620003f2565b5b5090506200041f919062000423565b5090565b5b808211156200043e57600081600090555060010162000424565b5090565b600080fd5b600073ffffffffffffffffffffffffffffffffffffffff82169050919050565b6000620004748262000447565b9050919050565b620004868162000467565b81146200049257600080fd5b50565b600081519050620004a6816200047b565b92915050565b600060208284031215620004c557620004c462000442565b5b6000620004d58482850162000495565b91505092915050565b600082825260208201905092915050565b7f4f776e61626c653a2063616c6c6572206973206e6f7420746865206f776e6572600082015250565b600062000527602083620004de565b91506200053482620004ef565b602082019050919050565b600060208201905081810360008301526200055a8162000518565b9050919050565b7f4f776e61626c653a206e6577206f776e657220697320746865207a65726f206160008201527f6464726573730000000000000000000000000000000000000000000000000000602082015250565b6000620005bf602683620004de565b9150620005cc8262000561565b604082019050919050565b60006020820190508181036000830152620005f281620005b0565b9050919050565b7f4e487b7100000000000000000000000000000000000000000000000000000000600052602260045260246000fd5b600060028204905060018216806200064157607f821691505b60208210811415620006585762000657620005f9565b5b50919050565b614579806200066e6000396000f3fe60806040526004361061021a5760003560e01c806366d003ac11610123578063c44bef75116100ab578063e6fd48bc1161006f578063e6fd48bc146107b5578063e985e9c5146107e0578063f19e75d41461081d578063f2fde38b14610846578063f4a0a5281461086f5761021a565b8063c44bef75146106be578063c714e89c146106e7578063c87b56dd14610710578063cfc86f7b1461074d578063e63ec947146107785761021a565b80637cb64759116100f25780637cb64759146105ed5780638da5cb5b1461061657806395d89b4114610641578063a22cb4651461066c578063b88d4fde146106955761021a565b806366d003ac146105435780636817c76c1461056e57806370a0823114610599578063715018a6146105d65761021a565b806330176e13116101a65780633c010a3e116101755780633c010a3e1461047f5780633ccfd60b146104aa57806342842e0e146104c15780635bfe024d146104ea5780636352211e146105065761021a565b806330176e13146103c557806330666a4d146103ee5780633423e548146104195780633bbed4a0146104565761021a565b806318160ddd116101ed57806318160ddd146102ed57806321328f9e1461031857806323b872dd146103555780632db115441461037e5780632eb4a7ab1461039a5761021a565b806301ffc9a71461021f57806306fdde031461025c578063081812fc14610287578063095ea7b3146102c4575b600080fd5b34801561022b57600080fd5b5061024660048036038101906102419190612a79565b610898565b6040516102539190612ac1565b60405180910390f35b34801561026857600080fd5b5061027161097a565b60405161027e9190612b75565b60405180910390f35b34801561029357600080fd5b506102ae60048036038101906102a99190612bcd565b610a0c565b6040516102bb9190612c3b565b60405180910390f35b3480156102d057600080fd5b506102eb60048036038101906102e69190612c82565b610a91565b005b3480156102f957600080fd5b50610302610ba9565b60405161030f9190612cd1565b60405180910390f35b34801561032457600080fd5b5061033f600480360381019061033a9190612cec565b610baf565b60405161034c9190612ac1565b60405180910390f35b34801561036157600080fd5b5061037c60048036038101906103779190612d19565b610bcf565b005b61039860048036038101906103939190612bcd565b610c2f565b005b3480156103a657600080fd5b506103af610d59565b6040516103bc9190612d85565b60405180910390f35b3480156103d157600080fd5b506103ec60048036038101906103e79190612ed5565b610d5f565b005b3480156103fa57600080fd5b50610403610df5565b6040516104109190612cd1565b60405180910390f35b34801561042557600080fd5b50610440600480360381019061043b9190613012565b610dfb565b60405161044d9190612ac1565b60405180910390f35b34801561046257600080fd5b5061047d60048036038101906104789190612cec565b610e11565b005b34801561048b57600080fd5b50610494610ed1565b6040516104a19190612cd1565b60405180910390f35b3480156104b657600080fd5b506104bf610ed7565b005b3480156104cd57600080fd5b506104e860048036038101906104e39190612d19565b610fae565b005b61050460048036038101906104ff9190613081565b610fce565b005b34801561051257600080fd5b5061052d60048036038101906105289190612bcd565b6112ec565b60405161053a9190612c3b565b60405180910390f35b34801561054f57600080fd5b5061055861139e565b6040516105659190612c3b565b60405180910390f35b34801561057a57600080fd5b506105836113c4565b6040516105909190612cd1565b60405180910390f35b3480156105a557600080fd5b506105c060048036038101906105bb9190612cec565b6113ca565b6040516105cd9190612cd1565b60405180910390f35b3480156105e257600080fd5b506105eb611482565b005b3480156105f957600080fd5b50610614600480360381019061060f9190613104565b61150a565b005b34801561062257600080fd5b5061062b611590565b6040516106389190612c3b565b60405180910390f35b34801561064d57600080fd5b506106566115ba565b6040516106639190612b75565b60405180910390f35b34801561067857600080fd5b50610693600480360381019061068e919061315d565b61164c565b005b3480156106a157600080fd5b506106bc60048036038101906106b7919061323e565b611662565b005b3480156106ca57600080fd5b506106e560048036038101906106e09190612bcd565b6116c4565b005b3480156106f357600080fd5b5061070e60048036038101906107099190612bcd565b61174a565b005b34801561071c57600080fd5b5061073760048036038101906107329190612bcd565b6117d0565b6040516107449190612b75565b60405180910390f35b34801561075957600080fd5b50610762611804565b60405161076f9190612b75565b60405180910390f35b34801561078457600080fd5b5061079f600480360381019061079a9190612cec565b611892565b6040516107ac9190612cd1565b60405180910390f35b3480156107c157600080fd5b506107ca6118aa565b6040516107d79190612cd1565b60405180910390f35b3480156107ec57600080fd5b50610807600480360381019061080291906132c1565b6118b0565b6040516108149190612ac1565b60405180910390f35b34801561082957600080fd5b50610844600480360381019061083f9190612bcd565b611944565b005b34801561085257600080fd5b5061086d60048036038101906108689190612cec565b6119cd565b005b34801561087b57600080fd5b5061089660048036038101906108919190612bcd565b611ac5565b005b60007f80ac58cd000000000000000000000000000000000000000000000000000000007bffffffffffffffffffffffffffffffffffffffffffffffffffffffff1916827bffffffffffffffffffffffffffffffffffffffffffffffffffffffff1916148061096357507f5b5e139f000000000000000000000000000000000000000000000000000000007bffffffffffffffffffffffffffffffffffffffffffffffffffffffff1916827bffffffffffffffffffffffffffffffffffffffffffffffffffffffff1916145b80610973575061097282611b4b565b5b9050919050565b60606000805461098990613330565b80601f01602080910402602001604051908101604052809291908181526020018280546109b590613330565b8015610a025780601f106109d757610100808354040283529160200191610a02565b820191906000526020600020905b8154815290600101906020018083116109e557829003601f168201915b5050505050905090565b6000610a1782611bb5565b610a56576040517f08c379a0000000000000000000000000000000000000000000000000000000008152600401610a4d906133d4565b60405180910390fd5b6004600083815260200190815260200160002060009054906101000a900473ffffffffffffffffffffffffffffffffffffffff169050919050565b6000610a9c826112ec565b90508073ffffffffffffffffffffffffffffffffffffffff168373ffffffffffffffffffffffffffffffffffffffff161415610b0d576040517f08c379a0000000000000000000000000000000000000000000000000000000008152600401610b0490613466565b60405180910390fd5b8073ffffffffffffffffffffffffffffffffffffffff16610b2c611c21565b73ffffffffffffffffffffffffffffffffffffffff161480610b5b5750610b5a81610b55611c21565b6118b0565b5b610b9a576040517f08c379a0000000000000000000000000000000000000000000000000000000008152600401610b91906134f8565b60405180910390fd5b610ba48383611c29565b505050565b600c5481565b60096020528060005260406000206000915054906101000a900460ff1681565b610be0610bda611c21565b82611ce2565b610c1f576040517f08c379a0000000000000000000000000000000000000000000000000000000008152600401610c169061358a565b60405180910390fd5b610c2a838383611dc0565b505050565b60006010541415610c75576040517f08c379a0000000000000000000000000000000000000000000000000000000008152600401610c6c906135f6565b60405180910390fd5b601054421015610cba576040517f08c379a0000000000000000000000000000000000000000000000000000000008152600401610cb190613662565b60405180910390fd5b60008111610cfd576040517f08c379a0000000000000000000000000000000000000000000000000000000008152600401610cf4906136ce565b60405180910390fd5b600a5481610d0b919061371d565b3414610d4c576040517f08c379a0000000000000000000000000000000000000000000000000000000008152600401610d43906137c3565b60405180910390fd5b610d56338261201c565b50565b60075481565b610d67611c21565b73ffffffffffffffffffffffffffffffffffffffff16610d85611590565b73ffffffffffffffffffffffffffffffffffffffff1614610ddb576040517f08c379a0000000000000000000000000000000000000000000000000000000008152600401610dd29061382f565b60405180910390fd5b80600f9080519060200190610df192919061296a565b5050565b600d5481565b6000610e08828585612142565b90509392505050565b610e19611c21565b73ffffffffffffffffffffffffffffffffffffffff16610e37611590565b73ffffffffffffffffffffffffffffffffffffffff1614610e8d576040517f08c379a0000000000000000000000000000000000000000000000000000000008152600401610e849061382f565b60405180910390fd5b80600e60006101000a81548173ffffffffffffffffffffffffffffffffffffffff021916908373ffffffffffffffffffffffffffffffffffffffff16021790555050565b600b5481565b60004790506000600e60009054906101000a900473ffffffffffffffffffffffffffffffffffffffff1673ffffffffffffffffffffffffffffffffffffffff1682604051610f2490613880565b60006040518083038185875af1925050503d8060008114610f61576040519150601f19603f3d011682016040523d82523d6000602084013e610f66565b606091505b5050905080610faa576040517f08c379a0000000000000000000000000000000000000000000000000000000008152600401610fa1906138e1565b60405180910390fd5b5050565b610fc983838360405180602001604052806000815250611662565b505050565b600960003373ffffffffffffffffffffffffffffffffffffffff1673ffffffffffffffffffffffffffffffffffffffff16815260200190815260200160002060009054906101000a900460ff166111725781338460405160200161103392919061396a565b6040516020818303038152906040528051906020012014611089576040517f08c379a000000000000000000000000000000000000000000000000000000000815260040161108090613a08565b60405180910390fd5b6110966007548383610dfb565b6110d5576040517f08c379a00000000000000000000000000000000000000000000000000000000081526004016110cc90613a9a565b60405180910390fd5b6001600960003373ffffffffffffffffffffffffffffffffffffffff1673ffffffffffffffffffffffffffffffffffffffff16815260200190815260200160002060006101000a81548160ff02191690831515021790555082600860003373ffffffffffffffffffffffffffffffffffffffff1673ffffffffffffffffffffffffffffffffffffffff168152602001908152602001600020819055505b600084116111b5576040517f08c379a00000000000000000000000000000000000000000000000000000000081526004016111ac906136ce565b60405180910390fd5b600a54846111c3919061371d565b3414611204576040517f08c379a00000000000000000000000000000000000000000000000000000000081526004016111fb906137c3565b60405180910390fd5b83600860003373ffffffffffffffffffffffffffffffffffffffff1673ffffffffffffffffffffffffffffffffffffffff168152602001908152602001600020541015611286576040517f08c379a000000000000000000000000000000000000000000000000000000000815260040161127d90613b2c565b60405180910390fd5b83600860003373ffffffffffffffffffffffffffffffffffffffff1673ffffffffffffffffffffffffffffffffffffffff16815260200190815260200160002060008282546112d59190613b4c565b925050819055506112e6338561201c565b50505050565b6000806002600084815260200190815260200160002060009054906101000a900473ffffffffffffffffffffffffffffffffffffffff169050600073ffffffffffffffffffffffffffffffffffffffff168173ffffffffffffffffffffffffffffffffffffffff161415611395576040517f08c379a000000000000000000000000000000000000000000000000000000000815260040161138c90613bf2565b60405180910390fd5b80915050919050565b600e60009054906101000a900473ffffffffffffffffffffffffffffffffffffffff1681565b600a5481565b60008073ffffffffffffffffffffffffffffffffffffffff168273ffffffffffffffffffffffffffffffffffffffff16141561143b576040517f08c379a000000000000000000000000000000000000000000000000000000000815260040161143290613c84565b60405180910390fd5b600360008373ffffffffffffffffffffffffffffffffffffffff1673ffffffffffffffffffffffffffffffffffffffff168152602001908152602001600020549050919050565b61148a611c21565b73ffffffffffffffffffffffffffffffffffffffff166114a8611590565b73ffffffffffffffffffffffffffffffffffffffff16146114fe576040517f08c379a00000000000000000000000000000000000000000000000000000000081526004016114f59061382f565b60405180910390fd5b6115086000612159565b565b611512611c21565b73ffffffffffffffffffffffffffffffffffffffff16611530611590565b73ffffffffffffffffffffffffffffffffffffffff1614611586576040517f08c379a000000000000000000000000000000000000000000000000000000000815260040161157d9061382f565b60405180910390fd5b8060078190555050565b6000600660009054906101000a900473ffffffffffffffffffffffffffffffffffffffff16905090565b6060600180546115c990613330565b80601f01602080910402602001604051908101604052809291908181526020018280546115f590613330565b80156116425780601f1061161757610100808354040283529160200191611642565b820191906000526020600020905b81548152906001019060200180831161162557829003601f168201915b5050505050905090565b61165e611657611c21565b838361221f565b5050565b61167361166d611c21565b83611ce2565b6116b2576040517f08c379a00000000000000000000000000000000000000000000000000000000081526004016116a99061358a565b60405180910390fd5b6116be8484848461238c565b50505050565b6116cc611c21565b73ffffffffffffffffffffffffffffffffffffffff166116ea611590565b73ffffffffffffffffffffffffffffffffffffffff1614611740576040517f08c379a00000000000000000000000000000000000000000000000000000000081526004016117379061382f565b60405180910390fd5b8060108190555050565b611752611c21565b73ffffffffffffffffffffffffffffffffffffffff16611770611590565b73ffffffffffffffffffffffffffffffffffffffff16146117c6576040517f08c379a00000000000000000000000000000000000000000000000000000000081526004016117bd9061382f565b60405180910390fd5b80600b8190555050565b6060600f6117dd836123e8565b6040516020016117ee929190613d74565b6040516020818303038152906040529050919050565b600f805461181190613330565b80601f016020809104026020016040519081016040528092919081815260200182805461183d90613330565b801561188a5780601f1061185f5761010080835404028352916020019161188a565b820191906000526020600020905b81548152906001019060200180831161186d57829003601f168201915b505050505081565b60086020528060005260406000206000915090505481565b60105481565b6000600560008473ffffffffffffffffffffffffffffffffffffffff1673ffffffffffffffffffffffffffffffffffffffff16815260200190815260200160002060008373ffffffffffffffffffffffffffffffffffffffff1673ffffffffffffffffffffffffffffffffffffffff16815260200190815260200160002060009054906101000a900460ff16905092915050565b61194c611c21565b73ffffffffffffffffffffffffffffffffffffffff1661196a611590565b73ffffffffffffffffffffffffffffffffffffffff16146119c0576040517f08c379a00000000000000000000000000000000000000000000000000000000081526004016119b79061382f565b60405180910390fd5b6119ca338261201c565b50565b6119d5611c21565b73ffffffffffffffffffffffffffffffffffffffff166119f3611590565b73ffffffffffffffffffffffffffffffffffffffff1614611a49576040517f08c379a0000000000000000000000000000000000000000000000000000000008152600401611a409061382f565b60405180910390fd5b600073ffffffffffffffffffffffffffffffffffffffff168173ffffffffffffffffffffffffffffffffffffffff161415611ab9576040517f08c379a0000000000000000000000000000000000000000000000000000000008152600401611ab090613e0a565b60405180910390fd5b611ac281612159565b50565b611acd611c21565b73ffffffffffffffffffffffffffffffffffffffff16611aeb611590565b73ffffffffffffffffffffffffffffffffffffffff1614611b41576040517f08c379a0000000000000000000000000000000000000000000000000000000008152600401611b389061382f565b60405180910390fd5b80600a8190555050565b60007f01ffc9a7000000000000000000000000000000000000000000000000000000007bffffffffffffffffffffffffffffffffffffffffffffffffffffffff1916827bffffffffffffffffffffffffffffffffffffffffffffffffffffffff1916149050919050565b60008073ffffffffffffffffffffffffffffffffffffffff166002600084815260200190815260200160002060009054906101000a900473ffffffffffffffffffffffffffffffffffffffff1673ffffffffffffffffffffffffffffffffffffffff1614159050919050565b600033905090565b816004600083815260200190815260200160002060006101000a81548173ffffffffffffffffffffffffffffffffffffffff021916908373ffffffffffffffffffffffffffffffffffffffff160217905550808273ffffffffffffffffffffffffffffffffffffffff16611c9c836112ec565b73ffffffffffffffffffffffffffffffffffffffff167f8c5be1e5ebec7d5bd14f71427d1e84f3dd0314c0f7b2291e5b200ac8c7c3b92560405160405180910390a45050565b6000611ced82611bb5565b611d2c576040517f08c379a0000000000000000000000000000000000000000000000000000000008152600401611d2390613e9c565b60405180910390fd5b6000611d37836112ec565b90508073ffffffffffffffffffffffffffffffffffffffff168473ffffffffffffffffffffffffffffffffffffffff161480611da657508373ffffffffffffffffffffffffffffffffffffffff16611d8e84610a0c565b73ffffffffffffffffffffffffffffffffffffffff16145b80611db75750611db681856118b0565b5b91505092915050565b8273ffffffffffffffffffffffffffffffffffffffff16611de0826112ec565b73ffffffffffffffffffffffffffffffffffffffff1614611e36576040517f08c379a0000000000000000000000000000000000000000000000000000000008152600401611e2d90613f2e565b60405180910390fd5b600073ffffffffffffffffffffffffffffffffffffffff168273ffffffffffffffffffffffffffffffffffffffff161415611ea6576040517f08c379a0000000000000000000000000000000000000000000000000000000008152600401611e9d90613fc0565b60405180910390fd5b611eb1838383612549565b611ebc600082611c29565b6001600360008573ffffffffffffffffffffffffffffffffffffffff1673ffffffffffffffffffffffffffffffffffffffff1681526020019081526020016000206000828254611f0c9190613b4c565b925050819055506001600360008473ffffffffffffffffffffffffffffffffffffffff1673ffffffffffffffffffffffffffffffffffffffff1681526020019081526020016000206000828254611f639190613fe0565b92505081905550816002600083815260200190815260200160002060006101000a81548173ffffffffffffffffffffffffffffffffffffffff021916908373ffffffffffffffffffffffffffffffffffffffff160217905550808273ffffffffffffffffffffffffffffffffffffffff168473ffffffffffffffffffffffffffffffffffffffff167fddf252ad1be2c89b69c2b068fc378daa952ba7f163c4a11628f55a4df523b3ef60405160405180910390a4505050565b600b5481600c5461202d9190613fe0565b111561206e576040517f08c379a000000000000000000000000000000000000000000000000000000000815260040161206590614082565b60405180910390fd5b600d548111156120b3576040517f08c379a00000000000000000000000000000000000000000000000000000000081526004016120aa90614114565b60405180910390fd5b60005b8181101561213d576120ca83600c5461254e565b600c548373ffffffffffffffffffffffffffffffffffffffff167f0f6798a560793a54c3bcfe86a93cde1e73087d944c0ea20544137d412139688560405160405180910390a36001600c60008282546121239190613fe0565b92505081905550808061213590614134565b9150506120b6565b505050565b60008261214f858461271c565b1490509392505050565b6000600660009054906101000a900473ffffffffffffffffffffffffffffffffffffffff16905081600660006101000a81548173ffffffffffffffffffffffffffffffffffffffff021916908373ffffffffffffffffffffffffffffffffffffffff1602179055508173ffffffffffffffffffffffffffffffffffffffff168173ffffffffffffffffffffffffffffffffffffffff167f8be0079c531659141344cd1fd0a4f28419497f9722a3daafe3b4186f6b6457e060405160405180910390a35050565b8173ffffffffffffffffffffffffffffffffffffffff168373ffffffffffffffffffffffffffffffffffffffff16141561228e576040517f08c379a0000000000000000000000000000000000000000000000000000000008152600401612285906141c9565b60405180910390fd5b80600560008573ffffffffffffffffffffffffffffffffffffffff1673ffffffffffffffffffffffffffffffffffffffff16815260200190815260200160002060008473ffffffffffffffffffffffffffffffffffffffff1673ffffffffffffffffffffffffffffffffffffffff16815260200190815260200160002060006101000a81548160ff0219169083151502179055508173ffffffffffffffffffffffffffffffffffffffff168373ffffffffffffffffffffffffffffffffffffffff167f17307eab39ab6107e8899845ad3d59bd9653f200f220920489ca2b5937696c318360405161237f9190612ac1565b60405180910390a3505050565b612397848484611dc0565b6123a3848484846127cf565b6123e2576040517f08c379a00000000000000000000000000000000000000000000000000000000081526004016123d99061425b565b60405180910390fd5b50505050565b60606000821415612430576040518060400160405280600181526020017f30000000000000000000000000000000000000000000000000000000000000008152509050612544565b600082905060005b6000821461246257808061244b90614134565b915050600a8261245b91906142aa565b9150612438565b60008167ffffffffffffffff81111561247e5761247d612daa565b5b6040519080825280601f01601f1916602001820160405280156124b05781602001600182028036833780820191505090505b5090505b6000851461253d576001826124c99190613b4c565b9150600a856124d891906142db565b60306124e49190613fe0565b60f81b8183815181106124fa576124f961430c565b5b60200101907effffffffffffffffffffffffffffffffffffffffffffffffffffffffffffff1916908160001a905350600a8561253691906142aa565b94506124b4565b8093505050505b919050565b505050565b600073ffffffffffffffffffffffffffffffffffffffff168273ffffffffffffffffffffffffffffffffffffffff1614156125be576040517f08c379a00000000000000000000000000000000000000000000000000000000081526004016125b590614387565b60405180910390fd5b6125c781611bb5565b15612607576040517f08c379a00000000000000000000000000000000000000000000000000000000081526004016125fe906143f3565b60405180910390fd5b61261360008383612549565b6001600360008473ffffffffffffffffffffffffffffffffffffffff1673ffffffffffffffffffffffffffffffffffffffff16815260200190815260200160002060008282546126639190613fe0565b92505081905550816002600083815260200190815260200160002060006101000a81548173ffffffffffffffffffffffffffffffffffffffff021916908373ffffffffffffffffffffffffffffffffffffffff160217905550808273ffffffffffffffffffffffffffffffffffffffff16600073ffffffffffffffffffffffffffffffffffffffff167fddf252ad1be2c89b69c2b068fc378daa952ba7f163c4a11628f55a4df523b3ef60405160405180910390a45050565b60008082905060005b84518110156127c45760008582815181106127435761274261430c565b5b60200260200101519050808311612784578281604051602001612767929190614434565b6040516020818303038152906040528051906020012092506127b0565b8083604051602001612797929190614434565b6040516020818303038152906040528051906020012092505b5080806127bc90614134565b915050612725565b508091505092915050565b60006127f08473ffffffffffffffffffffffffffffffffffffffff16612957565b1561294a578373ffffffffffffffffffffffffffffffffffffffff1663150b7a02612819611c21565b8786866040518563ffffffff1660e01b815260040161283b94939291906144b5565b6020604051808303816000875af192505050801561287757506040513d601f19601f820116820180604052508101906128749190614516565b60015b6128fa573d80600081146128a7576040519150601f19603f3d011682016040523d82523d6000602084013e6128ac565b606091505b506000815114156128f2576040517f08c379a00000000000000000000000000000000000000000000000000000000081526004016128e99061425b565b60405180910390fd5b805181602001fd5b63150b7a0260e01b7bffffffffffffffffffffffffffffffffffffffffffffffffffffffff1916817bffffffffffffffffffffffffffffffffffffffffffffffffffffffff19161491505061294f565b600190505b949350505050565b600080823b905060008111915050919050565b82805461297690613330565b90600052602060002090601f01602090048101928261299857600085556129df565b82601f106129b157805160ff19168380011785556129df565b828001600101855582156129df579182015b828111156129de5782518255916020019190600101906129c3565b5b5090506129ec91906129f0565b5090565b5b80821115612a095760008160009055506001016129f1565b5090565b6000604051905090565b600080fd5b600080fd5b60007fffffffff0000000000000000000000000000000000000000000000000000000082169050919050565b612a5681612a21565b8114612a6157600080fd5b50565b600081359050612a7381612a4d565b92915050565b600060208284031215612a8f57612a8e612a17565b5b6000612a9d84828501612a64565b91505092915050565b60008115159050919050565b612abb81612aa6565b82525050565b6000602082019050612ad66000830184612ab2565b92915050565b600081519050919050565b600082825260208201905092915050565b60005b83811015612b16578082015181840152602081019050612afb565b83811115612b25576000848401525b50505050565b6000601f19601f8301169050919050565b6000612b4782612adc565b612b518185612ae7565b9350612b61818560208601612af8565b612b6a81612b2b565b840191505092915050565b60006020820190508181036000830152612b8f8184612b3c565b905092915050565b6000819050919050565b612baa81612b97565b8114612bb557600080fd5b50565b600081359050612bc781612ba1565b92915050565b600060208284031215612be357612be2612a17565b5b6000612bf184828501612bb8565b91505092915050565b600073ffffffffffffffffffffffffffffffffffffffff82169050919050565b6000612c2582612bfa565b9050919050565b612c3581612c1a565b82525050565b6000602082019050612c506000830184612c2c565b92915050565b612c5f81612c1a565b8114612c6a57600080fd5b50565b600081359050612c7c81612c56565b92915050565b60008060408385031215612c9957612c98612a17565b5b6000612ca785828601612c6d565b9250506020612cb885828601612bb8565b9150509250929050565b612ccb81612b97565b82525050565b6000602082019050612ce66000830184612cc2565b92915050565b600060208284031215612d0257612d01612a17565b5b6000612d1084828501612c6d565b91505092915050565b600080600060608486031215612d3257612d31612a17565b5b6000612d4086828701612c6d565b9350506020612d5186828701612c6d565b9250506040612d6286828701612bb8565b9150509250925092565b6000819050919050565b612d7f81612d6c565b82525050565b6000602082019050612d9a6000830184612d76565b92915050565b600080fd5b600080fd5b7f4e487b7100000000000000000000000000000000000000000000000000000000600052604160045260246000fd5b612de282612b2b565b810181811067ffffffffffffffff82111715612e0157612e00612daa565b5b80604052505050565b6000612e14612a0d565b9050612e208282612dd9565b919050565b600067ffffffffffffffff821115612e4057612e3f612daa565b5b612e4982612b2b565b9050602081019050919050565b82818337600083830152505050565b6000612e78612e7384612e25565b612e0a565b905082815260208101848484011115612e9457612e93612da5565b5b612e9f848285612e56565b509392505050565b600082601f830112612ebc57612ebb612da0565b5b8135612ecc848260208601612e65565b91505092915050565b600060208284031215612eeb57612eea612a17565b5b600082013567ffffffffffffffff811115612f0957612f08612a1c565b5b612f1584828501612ea7565b91505092915050565b612f2781612d6c565b8114612f3257600080fd5b50565b600081359050612f4481612f1e565b92915050565b600067ffffffffffffffff821115612f6557612f64612daa565b5b602082029050602081019050919050565b600080fd5b6000612f8e612f8984612f4a565b612e0a565b90508083825260208201905060208402830185811115612fb157612fb0612f76565b5b835b81811015612fda5780612fc68882612f35565b845260208401935050602081019050612fb3565b5050509392505050565b600082601f830112612ff957612ff8612da0565b5b8135613009848260208601612f7b565b91505092915050565b60008060006060848603121561302b5761302a612a17565b5b600061303986828701612f35565b935050602061304a86828701612f35565b925050604084013567ffffffffffffffff81111561306b5761306a612a1c565b5b61307786828701612fe4565b9150509250925092565b6000806000806080858703121561309b5761309a612a17565b5b60006130a987828801612bb8565b94505060206130ba87828801612bb8565b93505060406130cb87828801612f35565b925050606085013567ffffffffffffffff8111156130ec576130eb612a1c565b5b6130f887828801612fe4565b91505092959194509250565b60006020828403121561311a57613119612a17565b5b600061312884828501612f35565b91505092915050565b61313a81612aa6565b811461314557600080fd5b50565b60008135905061315781613131565b92915050565b6000806040838503121561317457613173612a17565b5b600061318285828601612c6d565b925050602061319385828601613148565b9150509250929050565b600067ffffffffffffffff8211156131b8576131b7612daa565b5b6131c182612b2b565b9050602081019050919050565b60006131e16131dc8461319d565b612e0a565b9050828152602081018484840111156131fd576131fc612da5565b5b613208848285612e56565b509392505050565b600082601f83011261322557613224612da0565b5b81356132358482602086016131ce565b91505092915050565b6000806000806080858703121561325857613257612a17565b5b600061326687828801612c6d565b945050602061327787828801612c6d565b935050604061328887828801612bb8565b925050606085013567ffffffffffffffff8111156132a9576132a8612a1c565b5b6132b587828801613210565b91505092959194509250565b600080604083850312156132d8576132d7612a17565b5b60006132e685828601612c6d565b92505060206132f785828601612c6d565b9150509250929050565b7f4e487b7100000000000000000000000000000000000000000000000000000000600052602260045260246000fd5b6000600282049050600182168061334857607f821691505b6020821081141561335c5761335b613301565b5b50919050565b7f4552433732313a20617070726f76656420717565727920666f72206e6f6e657860008201527f697374656e7420746f6b656e0000000000000000000000000000000000000000602082015250565b60006133be602c83612ae7565b91506133c982613362565b604082019050919050565b600060208201905081810360008301526133ed816133b1565b9050919050565b7f4552433732313a20617070726f76616c20746f2063757272656e74206f776e6560008201527f7200000000000000000000000000000000000000000000000000000000000000602082015250565b6000613450602183612ae7565b915061345b826133f4565b604082019050919050565b6000602082019050818103600083015261347f81613443565b9050919050565b7f4552433732313a20617070726f76652063616c6c6572206973206e6f74206f7760008201527f6e6572206e6f7220617070726f76656420666f7220616c6c0000000000000000602082015250565b60006134e2603883612ae7565b91506134ed82613486565b604082019050919050565b60006020820190508181036000830152613511816134d5565b9050919050565b7f4552433732313a207472616e736665722063616c6c6572206973206e6f74206f60008201527f776e6572206e6f7220617070726f766564000000000000000000000000000000602082015250565b6000613574603183612ae7565b915061357f82613518565b604082019050919050565b600060208201905081810360008301526135a381613567565b9050919050565b7f53746172742074696d657374616d70206e6f7420736574000000000000000000600082015250565b60006135e0601783612ae7565b91506135eb826135aa565b602082019050919050565b6000602082019050818103600083015261360f816135d3565b9050919050565b7f4e6f74206f70656e207965740000000000000000000000000000000000000000600082015250565b600061364c600c83612ae7565b915061365782613616565b602082019050919050565b6000602082019050818103600083015261367b8161363f565b9050919050565b7f43616e2774206d696e74207a65726f0000000000000000000000000000000000600082015250565b60006136b8600f83612ae7565b91506136c382613682565b602082019050919050565b600060208201905081810360008301526136e7816136ab565b9050919050565b7f4e487b7100000000000000000000000000000000000000000000000000000000600052601160045260246000fd5b600061372882612b97565b915061373383612b97565b9250817fffffffffffffffffffffffffffffffffffffffffffffffffffffffffffffffff048311821515161561376c5761376b6136ee565b5b828202905092915050565b7f53656e642070726f7065722045544820616d6f756e7400000000000000000000600082015250565b60006137ad601683612ae7565b91506137b882613777565b602082019050919050565b600060208201905081810360008301526137dc816137a0565b9050919050565b7f4f776e61626c653a2063616c6c6572206973206e6f7420746865206f776e6572600082015250565b6000613819602083612ae7565b9150613824826137e3565b602082019050919050565b600060208201905081810360008301526138488161380c565b9050919050565b600081905092915050565b50565b600061386a60008361384f565b91506138758261385a565b600082019050919050565b600061388b8261385d565b9150819050919050565b7f4661696c656420746f2073656e64206574686572000000000000000000000000600082015250565b60006138cb601483612ae7565b91506138d682613895565b602082019050919050565b600060208201905081810360008301526138fa816138be565b9050919050565b60008160601b9050919050565b600061391982613901565b9050919050565b600061392b8261390e565b9050919050565b61394361393e82612c1a565b613920565b82525050565b6000819050919050565b61396461395f82612b97565b613949565b82525050565b60006139768285613932565b6014820191506139868284613953565b6020820191508190509392505050565b7f53656e64657220616e6420616d6f756e7420646f6e2774206d61746368204d6560008201527f726b6c65206c6561660000000000000000000000000000000000000000000000602082015250565b60006139f2602983612ae7565b91506139fd82613996565b604082019050919050565b60006020820190508181036000830152613a21816139e5565b9050919050565b7f4e6f7420612076616c6964206c65616620696e20746865204d65726b6c65207460008201527f7265650000000000000000000000000000000000000000000000000000000000602082015250565b6000613a84602383612ae7565b9150613a8f82613a28565b604082019050919050565b60006020820190508181036000830152613ab381613a77565b9050919050565b7f43616e2774206d696e74206d6f7265207468616e2072656d61696e696e67206160008201527f6c6c6f636174696f6e0000000000000000000000000000000000000000000000602082015250565b6000613b16602983612ae7565b9150613b2182613aba565b604082019050919050565b60006020820190508181036000830152613b4581613b09565b9050919050565b6000613b5782612b97565b9150613b6283612b97565b925082821015613b7557613b746136ee565b5b828203905092915050565b7f4552433732313a206f776e657220717565727920666f72206e6f6e657869737460008201527f656e7420746f6b656e0000000000000000000000000000000000000000000000602082015250565b6000613bdc602983612ae7565b9150613be782613b80565b604082019050919050565b60006020820190508181036000830152613c0b81613bcf565b9050919050565b7f4552433732313a2062616c616e636520717565727920666f7220746865207a6560008201527f726f206164647265737300000000000000000000000000000000000000000000602082015250565b6000613c6e602a83612ae7565b9150613c7982613c12565b604082019050919050565b60006020820190508181036000830152613c9d81613c61565b9050919050565b600081905092915050565b60008190508160005260206000209050919050565b60008154613cd181613330565b613cdb8186613ca4565b94506001821660008114613cf65760018114613d0757613d3a565b60ff19831686528186019350613d3a565b613d1085613caf565b60005b83811015613d3257815481890152600182019150602081019050613d13565b838801955050505b50505092915050565b6000613d4e82612adc565b613d588185613ca4565b9350613d68818560208601612af8565b80840191505092915050565b6000613d808285613cc4565b9150613d8c8284613d43565b91508190509392505050565b7f4f776e61626c653a206e6577206f776e657220697320746865207a65726f206160008201527f6464726573730000000000000000000000000000000000000000000000000000602082015250565b6000613df4602683612ae7565b9150613dff82613d98565b604082019050919050565b60006020820190508181036000830152613e2381613de7565b9050919050565b7f4552433732313a206f70657261746f7220717565727920666f72206e6f6e657860008201527f697374656e7420746f6b656e0000000000000000000000000000000000000000602082015250565b6000613e86602c83612ae7565b9150613e9182613e2a565b604082019050919050565b60006020820190508181036000830152613eb581613e79565b9050919050565b7f4552433732313a207472616e73666572206f6620746f6b656e2074686174206960008201527f73206e6f74206f776e0000000000000000000000000000000000000000000000602082015250565b6000613f18602983612ae7565b9150613f2382613ebc565b604082019050919050565b60006020820190508181036000830152613f4781613f0b565b9050919050565b7f4552433732313a207472616e7366657220746f20746865207a65726f2061646460008201527f7265737300000000000000000000000000000000000000000000000000000000602082015250565b6000613faa602483612ae7565b9150613fb582613f4e565b604082019050919050565b60006020820190508181036000830152613fd981613f9d565b9050919050565b6000613feb82612b97565b9150613ff683612b97565b9250827fffffffffffffffffffffffffffffffffffffffffffffffffffffffffffffffff0382111561402b5761402a6136ee565b5b828201905092915050565b7f6d696e74576974686f757456616c69646174696f6e3a20536f6c64206f757400600082015250565b600061406c601f83612ae7565b915061407782614036565b602082019050919050565b6000602082019050818103600083015261409b8161405f565b9050919050565b7f6d696e74576974686f757456616c69646174696f6e3a2053757270617373657360008201527f206d61784974656d735065725478000000000000000000000000000000000000602082015250565b60006140fe602e83612ae7565b9150614109826140a2565b604082019050919050565b6000602082019050818103600083015261412d816140f1565b9050919050565b600061413f82612b97565b91507fffffffffffffffffffffffffffffffffffffffffffffffffffffffffffffffff821415614172576141716136ee565b5b600182019050919050565b7f4552433732313a20617070726f766520746f2063616c6c657200000000000000600082015250565b60006141b3601983612ae7565b91506141be8261417d565b602082019050919050565b600060208201905081810360008301526141e2816141a6565b9050919050565b7f4552433732313a207472616e7366657220746f206e6f6e20455243373231526560008201527f63656976657220696d706c656d656e7465720000000000000000000000000000602082015250565b6000614245603283612ae7565b9150614250826141e9565b604082019050919050565b6000602082019050818103600083015261427481614238565b9050919050565b7f4e487b7100000000000000000000000000000000000000000000000000000000600052601260045260246000fd5b60006142b582612b97565b91506142c083612b97565b9250826142d0576142cf61427b565b5b828204905092915050565b60006142e682612b97565b91506142f183612b97565b9250826143015761430061427b565b5b828206905092915050565b7f4e487b7100000000000000000000000000000000000000000000000000000000600052603260045260246000fd5b7f4552433732313a206d696e7420746f20746865207a65726f2061646472657373600082015250565b6000614371602083612ae7565b915061437c8261433b565b602082019050919050565b600060208201905081810360008301526143a081614364565b9050919050565b7f4552433732313a20746f6b656e20616c7265616479206d696e74656400000000600082015250565b60006143dd601c83612ae7565b91506143e8826143a7565b602082019050919050565b6000602082019050818103600083015261440c816143d0565b9050919050565b6000819050919050565b61442e61442982612d6c565b614413565b82525050565b6000614440828561441d565b602082019150614450828461441d565b6020820191508190509392505050565b600081519050919050565b600082825260208201905092915050565b600061448782614460565b614491818561446b565b93506144a1818560208601612af8565b6144aa81612b2b565b840191505092915050565b60006080820190506144ca6000830187612c2c565b6144d76020830186612c2c565b6144e46040830185612cc2565b81810360608301526144f6818461447c565b905095945050505050565b60008151905061451081612a4d565b92915050565b60006020828403121561452c5761452b612a17565b5b600061453a84828501614501565b9150509291505056fea2646970667358221220c5910969226c42a2cacef02ca58362f230f43c692835dab7dd3c003fc89d85bc64736f6c634300080b0033",
  "immutableReferences": {},
  "source": "// SPDX-License-Identifier: MIT\npragma solidity ^0.8.9;\n\nimport \"@openzeppelin/contracts/access/Ownable.sol\";\nimport \"@openzeppelin/contracts/token/ERC721/ERC721.sol\";\nimport \"@openzeppelin/contracts/utils/cryptography/MerkleProof.sol\";\n\ncontract TrustDaoAvatar is ERC721, Ownable {\n\n    bytes32 public merkleRoot = \"\"; // Construct this from (address, amount) tuple elements\n    mapping(address => uint) public whitelistRemaining; // Maps user address to their remaining mints if they have minted some but not all of their allocation\n    mapping(address => bool) public whitelistUsed; // Maps user address to bool, true if user has minted\n\n    uint public mintPrice = 0.04 ether;\n    uint public maxItems = 5000;\n    uint public totalSupply = 0;\n    uint public maxItemsPerTx = 50;\n    address public recipient;\n    string public _baseTokenURI;\n    uint public startTimestamp;\n\n    event Mint(address indexed owner, uint indexed tokenId);\n\n    constructor(address _recipient) ERC721(\"TRUSTDAOAVATAR\", \"TDAVT\") {\n        transferOwnership(0xFFfFfFffFFfffFFfFFfFFFFFffFFFffffFfFFFfF);\n        recipient = _recipient;\n    }\n\n    modifier mintingOpen() {\n        require(startTimestamp != 0, \"Start timestamp not set\");\n        require(block.timestamp >= startTimestamp, \"Not open yet\");\n        _;\n    }\n\n    function ownerMint(uint amount) external onlyOwner {\n        _mintWithoutValidation(msg.sender, amount);\n    }\n\n    function publicMint(uint amount) external payable mintingOpen {\n        // Require nonzero amount\n        require(amount > 0, \"Can't mint zero\");\n\n        // Check proper amount sent\n        require(msg.value == amount * mintPrice, \"Send proper ETH amount\");\n\n        _mintWithoutValidation(msg.sender, amount);\n    }\n\n    function whitelistMint(uint amount, uint totalAllocation, bytes32 leaf, bytes32[] memory proof) external payable {\n        // Create storage element tracking user mints if this is the first mint for them\n        if (!whitelistUsed[msg.sender]) {        \n            // Verify that (msg.sender, amount) correspond to Merkle leaf\n            require(keccak256(abi.encodePacked(msg.sender, totalAllocation)) == leaf, \"Sender and amount don't match Merkle leaf\");\n\n            // Verify that (leaf, proof) matches the Merkle root\n            require(verify(merkleRoot, leaf, proof), \"Not a valid leaf in the Merkle tree\");\n\n            whitelistUsed[msg.sender] = true;\n            whitelistRemaining[msg.sender] = totalAllocation;\n        }\n\n        // Require nonzero amount\n        require(amount > 0, \"Can't mint zero\");\n\n        // Check proper amount sent\n        require(msg.value == amount * mintPrice, \"Send proper ETH amount\");\n\n        require(whitelistRemaining[msg.sender] >= amount, \"Can't mint more than remaining allocation\");\n\n        whitelistRemaining[msg.sender] -= amount;\n        _mintWithoutValidation(msg.sender, amount);\n    }\n\n    function _mintWithoutValidation(address to, uint amount) internal {\n        require(totalSupply + amount <= maxItems, \"mintWithoutValidation: Sold out\");\n        require(amount <= maxItemsPerTx, \"mintWithoutValidation: Surpasses maxItemsPerTx\");\n        for (uint i = 0; i < amount; i++) {\n            _mint(to, totalSupply);\n            emit Mint(to, totalSupply);\n            totalSupply += 1;\n        }\n    }\n\n    function verify(bytes32 root, bytes32 leaf, bytes32[] memory proof) public pure returns (bool) {\n        return MerkleProof.verify(proof, root, leaf);\n    }\n\n    // ADMIN FUNCTIONALITY\n\n    function setMintPrice(uint _mintPrice) external onlyOwner {\n        mintPrice = _mintPrice;\n    }\n\n    function setMaxItems(uint _maxItems) external onlyOwner {\n        maxItems = _maxItems;\n    }\n\n    function setRecipient(address _recipient) external onlyOwner {\n        recipient = _recipient;\n    }\n\n    function setStartTimestamp(uint _startTimestamp) external onlyOwner {\n        startTimestamp = _startTimestamp;\n    }\n\n    function setBaseTokenURI(string memory __baseTokenURI) public onlyOwner {\n        _baseTokenURI = __baseTokenURI;\n    }\n\n    function setMerkleRoot(bytes32 _merkleRoot) public onlyOwner {\n        merkleRoot = _merkleRoot;\n    }\n\n    // WITHDRAWAL FUNCTIONALITY\n\n    /**\n     * @dev Withdraw the contract balance to the recipient address\n     */\n    function withdraw() external {\n        uint amount = address(this).balance;\n        // fix truffle compile issue:\n        // https://stackoverflow.com/questions/66388642/solidity-parsererror-expected-but-got\n        (bool success,) = recipient.call{value: amount}(\"\");\n        // (bool success, ) = recipient.call.value(amount)(\"\");\n        require(success, \"Failed to send ether\");\n    }\n\n    // METADATA FUNCTIONALITY\n\n    /**\n     * @dev Returns a URI for a given token ID's metadata\n     */\n    function tokenURI(uint256 _tokenId) public view override returns (string memory) {\n        return string(abi.encodePacked(_baseTokenURI, Strings.toString(_tokenId)));\n    }\n\n}\n",
  "sourcePath": "/Users/teamcook/Documents/exchange_hat/contracts/TrustDaoAvatar.sol",
  "compiler": {
    "name": "solc",
    "version": "0.8.11+commit.d7f03943.Emscripten.clang"
  },
  "schemaVersion": "3.4.4",
  "updatedAt": "2022-01-08T14:02:01.110Z",
  "devdoc": {
    "kind": "dev",
    "methods": {
      "approve(address,uint256)": {
        "details": "See {IERC721-approve}."
      },
      "balanceOf(address)": {
        "details": "See {IERC721-balanceOf}."
      },
      "getApproved(uint256)": {
        "details": "See {IERC721-getApproved}."
      },
      "isApprovedForAll(address,address)": {
        "details": "See {IERC721-isApprovedForAll}."
      },
      "name()": {
        "details": "See {IERC721Metadata-name}."
      },
      "owner()": {
        "details": "Returns the address of the current owner."
      },
      "ownerOf(uint256)": {
        "details": "See {IERC721-ownerOf}."
      },
      "renounceOwnership()": {
        "details": "Leaves the contract without owner. It will not be possible to call `onlyOwner` functions anymore. Can only be called by the current owner. NOTE: Renouncing ownership will leave the contract without an owner, thereby removing any functionality that is only available to the owner."
      },
      "safeTransferFrom(address,address,uint256)": {
        "details": "See {IERC721-safeTransferFrom}."
      },
      "safeTransferFrom(address,address,uint256,bytes)": {
        "details": "See {IERC721-safeTransferFrom}."
      },
      "setApprovalForAll(address,bool)": {
        "details": "See {IERC721-setApprovalForAll}."
      },
      "supportsInterface(bytes4)": {
        "details": "See {IERC165-supportsInterface}."
      },
      "symbol()": {
        "details": "See {IERC721Metadata-symbol}."
      },
      "tokenURI(uint256)": {
        "details": "Returns a URI for a given token ID's metadata"
      },
      "transferFrom(address,address,uint256)": {
        "details": "See {IERC721-transferFrom}."
      },
      "transferOwnership(address)": {
        "details": "Transfers ownership of the contract to a new account (`newOwner`). Can only be called by the current owner."
      },
      "withdraw()": {
        "details": "Withdraw the contract balance to the recipient address"
      }
    },
    "version": 1
  },
  "userdoc": {
    "kind": "user",
    "methods": {},
    "version": 1
  }
}